{
  "_format": "hh-sol-artifact-1",
  "contractName": "EscrowFreelance",
  "sourceName": "contracts/EscrowFreelance.sol",
  "abi": [
    {
      "anonymous": false,
      "inputs": [
        {
          "indexed": true,
          "internalType": "uint256",
          "name": "jobId",
          "type": "uint256"
        },
        {
          "indexed": true,
          "internalType": "address",
          "name": "freelancer",
          "type": "address"
        }
      ],
      "name": "JobAccepted",
      "type": "event"
    },
    {
      "anonymous": false,
      "inputs": [
        {
          "indexed": true,
          "internalType": "uint256",
          "name": "jobId",
          "type": "uint256"
        }
      ],
      "name": "JobCompleted",
      "type": "event"
    },
    {
      "anonymous": false,
      "inputs": [
        {
          "indexed": true,
          "internalType": "uint256",
          "name": "jobId",
          "type": "uint256"
        },
        {
          "indexed": true,
          "internalType": "address",
          "name": "client",
          "type": "address"
        },
        {
          "indexed": false,
          "internalType": "uint256",
          "name": "amount",
          "type": "uint256"
        }
      ],
      "name": "JobCreated",
      "type": "event"
    },
    {
      "anonymous": false,
      "inputs": [
        {
          "indexed": true,
          "internalType": "uint256",
          "name": "jobId",
          "type": "uint256"
        }
      ],
      "name": "PaymentReleased",
      "type": "event"
    },
    {
      "inputs": [
        {
          "internalType": "uint256",
          "name": "_jobId",
          "type": "uint256"
        }
      ],
      "name": "acceptJob",
      "outputs": [],
      "stateMutability": "nonpayable",
      "type": "function"
    },
    {
      "inputs": [
        {
          "internalType": "address",
          "name": "",
          "type": "address"
        },
        {
          "internalType": "uint256",
          "name": "",
          "type": "uint256"
        }
      ],
      "name": "clientJobs",
      "outputs": [
        {
          "internalType": "uint256",
          "name": "",
          "type": "uint256"
        }
      ],
      "stateMutability": "view",
      "type": "function"
    },
    {
      "inputs": [
        {
          "internalType": "string",
          "name": "_description",
          "type": "string"
        },
        {
          "internalType": "uint256",
          "name": "_amount",
          "type": "uint256"
        }
      ],
      "name": "createJob",
      "outputs": [],
      "stateMutability": "payable",
      "type": "function"
    },
    {
      "inputs": [
        {
          "internalType": "address",
          "name": "_client",
          "type": "address"
        }
      ],
      "name": "getClientJobs",
      "outputs": [
        {
          "internalType": "uint256[]",
          "name": "",
          "type": "uint256[]"
        }
      ],
      "stateMutability": "view",
      "type": "function"
    },
    {
      "inputs": [
        {
          "internalType": "uint256",
          "name": "_jobId",
          "type": "uint256"
        }
      ],
      "name": "getJob",
      "outputs": [
        {
          "internalType": "address",
          "name": "client",
          "type": "address"
        },
        {
          "internalType": "address",
          "name": "freelancer",
          "type": "address"
        },
        {
          "internalType": "uint256",
          "name": "amount",
          "type": "uint256"
        },
        {
          "internalType": "string",
          "name": "description",
          "type": "string"
        },
        {
          "internalType": "bool",
          "name": "accepted",
          "type": "bool"
        },
        {
          "internalType": "bool",
          "name": "completed",
          "type": "bool"
        },
        {
          "internalType": "bool",
          "name": "paid",
          "type": "bool"
        }
      ],
      "stateMutability": "view",
      "type": "function"
    },
    {
      "inputs": [],
      "name": "getJobCount",
      "outputs": [
        {
          "internalType": "uint256",
          "name": "",
          "type": "uint256"
        }
      ],
      "stateMutability": "view",
      "type": "function"
    },
    {
      "inputs": [
        {
          "internalType": "uint256",
          "name": "",
          "type": "uint256"
        }
      ],
      "name": "jobs",
      "outputs": [
        {
          "internalType": "address",
          "name": "client",
          "type": "address"
        },
        {
          "internalType": "address",
          "name": "freelancer",
          "type": "address"
        },
        {
          "internalType": "uint256",
          "name": "amount",
          "type": "uint256"
        },
        {
          "internalType": "string",
          "name": "description",
          "type": "string"
        },
        {
          "internalType": "bool",
          "name": "accepted",
          "type": "bool"
        },
        {
          "internalType": "bool",
          "name": "completed",
          "type": "bool"
        },
        {
          "internalType": "bool",
          "name": "paid",
          "type": "bool"
        }
      ],
      "stateMutability": "view",
      "type": "function"
    },
    {
      "inputs": [
        {
          "internalType": "uint256",
          "name": "_jobId",
          "type": "uint256"
        }
      ],
      "name": "markCompleted",
      "outputs": [],
      "stateMutability": "nonpayable",
      "type": "function"
    },
    {
      "inputs": [
        {
          "internalType": "uint256",
          "name": "_jobId",
          "type": "uint256"
        }
      ],
      "name": "releasePayment",
      "outputs": [],
      "stateMutability": "nonpayable",
      "type": "function"
    }
  ],
  "bytecode": "0x608060405234801561001057600080fd5b50611e04806100206000396000f3fe6080604052600436106100865760003560e01c80638facd859116100595780638facd8591461013c578063b02b4a2f14610179578063bf22c457146101a4578063cac5c512146101e7578063cf2646c21461021057610086565b8063180aedf31461008b5780635713b2b6146100ce57806363b2f3c9146100ea57806388685cd914610113575b600080fd5b34801561009757600080fd5b506100b260048036038101906100ad91906110c8565b61024d565b6040516100c597969594939291906111f0565b60405180910390f35b6100e860048036038101906100e3919061139b565b61038e565b005b3480156100f657600080fd5b50610111600480360381019061010c91906110c8565b61067a565b005b34801561011f57600080fd5b5061013a600480360381019061013591906110c8565b610905565b005b34801561014857600080fd5b50610163600480360381019061015e9190611423565b610b63565b6040516101709190611463565b60405180910390f35b34801561018557600080fd5b5061018e610b94565b60405161019b9190611463565b60405180910390f35b3480156101b057600080fd5b506101cb60048036038101906101c691906110c8565b610ba0565b6040516101de97969594939291906111f0565b60405180910390f35b3480156101f357600080fd5b5061020e600480360381019061020991906110c8565b610df8565b005b34801561021c57600080fd5b506102376004803603810190610232919061147e565b610fe7565b6040516102449190611569565b60405180910390f35b6000818154811061025d57600080fd5b90600052602060002090600502016000915090508060000160009054906101000a900473ffffffffffffffffffffffffffffffffffffffff16908060010160009054906101000a900473ffffffffffffffffffffffffffffffffffffffff16908060020154908060030180546102d2906115ba565b80601f01602080910402602001604051908101604052809291908181526020018280546102fe906115ba565b801561034b5780601f106103205761010080835404028352916020019161034b565b820191906000526020600020905b81548152906001019060200180831161032e57829003601f168201915b5050505050908060040160009054906101000a900460ff16908060040160019054906101000a900460ff16908060040160029054906101000a900460ff16905087565b8034146103d0576040517f08c379a00000000000000000000000000000000000000000000000000000000081526004016103c790611637565b60405180910390fd5b60008111610413576040517f08c379a000000000000000000000000000000000000000000000000000000000815260040161040a906116a3565b60405180910390fd5b60008080549050905060006040518060e001604052803373ffffffffffffffffffffffffffffffffffffffff168152602001600073ffffffffffffffffffffffffffffffffffffffff16815260200184815260200185815260200160001515815260200160001515815260200160001515815250908060018154018082558091505060019003906000526020600020906005020160009091909190915060008201518160000160006101000a81548173ffffffffffffffffffffffffffffffffffffffff021916908373ffffffffffffffffffffffffffffffffffffffff16021790555060208201518160010160006101000a81548173ffffffffffffffffffffffffffffffffffffffff021916908373ffffffffffffffffffffffffffffffffffffffff16021790555060408201518160020155606082015181600301908161055d919061186f565b5060808201518160040160006101000a81548160ff02191690831515021790555060a08201518160040160016101000a81548160ff02191690831515021790555060c08201518160040160026101000a81548160ff0219169083151502179055505050600160003373ffffffffffffffffffffffffffffffffffffffff1673ffffffffffffffffffffffffffffffffffffffff1681526020019081526020016000208190806001815401808255809150506001900390600052602060002001600090919091909150553373ffffffffffffffffffffffffffffffffffffffff16817f8678ba2d99dba901dafc51009f8d402d37a5a0275752cf0e263b827aeca906f28460405161066d9190611463565b60405180910390a3505050565b600080828154811061068f5761068e611941565b5b9060005260206000209060050201905060008054905082106106e6576040517f08c379a00000000000000000000000000000000000000000000000000000000081526004016106dd906119bc565b60405180910390fd5b8060040160009054906101000a900460ff1615610738576040517f08c379a000000000000000000000000000000000000000000000000000000000815260040161072f90611a28565b60405180910390fd5b3373ffffffffffffffffffffffffffffffffffffffff168160000160009054906101000a900473ffffffffffffffffffffffffffffffffffffffff1673ffffffffffffffffffffffffffffffffffffffff16036107ca576040517f08c379a00000000000000000000000000000000000000000000000000000000081526004016107c190611a94565b60405180910390fd5b600073ffffffffffffffffffffffffffffffffffffffff168160010160009054906101000a900473ffffffffffffffffffffffffffffffffffffffff1673ffffffffffffffffffffffffffffffffffffffff161461085d576040517f08c379a000000000000000000000000000000000000000000000000000000000815260040161085490611b00565b60405180910390fd5b338160010160006101000a81548173ffffffffffffffffffffffffffffffffffffffff021916908373ffffffffffffffffffffffffffffffffffffffff16021790555060018160040160006101000a81548160ff0219169083151502179055503373ffffffffffffffffffffffffffffffffffffffff16827f4426e4a90a9570c8f678a263b11785eaaade8b79d76d18c43d4d8e00062e4f8360405160405180910390a35050565b600080828154811061091a57610919611941565b5b906000526020600020906005020190506000805490508210610971576040517f08c379a0000000000000000000000000000000000000000000000000000000008152600401610968906119bc565b60405180910390fd5b3373ffffffffffffffffffffffffffffffffffffffff168160000160009054906101000a900473ffffffffffffffffffffffffffffffffffffffff1673ffffffffffffffffffffffffffffffffffffffff1614610a03576040517f08c379a00000000000000000000000000000000000000000000000000000000081526004016109fa90611b6c565b60405180910390fd5b8060040160019054906101000a900460ff16610a54576040517f08c379a0000000000000000000000000000000000000000000000000000000008152600401610a4b90611bd8565b60405180910390fd5b8060040160029054906101000a900460ff1615610aa6576040517f08c379a0000000000000000000000000000000000000000000000000000000008152600401610a9d90611c44565b60405180910390fd5b60018160040160026101000a81548160ff0219169083151502179055508060010160009054906101000a900473ffffffffffffffffffffffffffffffffffffffff1673ffffffffffffffffffffffffffffffffffffffff166108fc82600201549081150290604051600060405180830381858888f19350505050158015610b31573d6000803e3d6000fd5b50817f7094d01aa39ef767229e67850ef530b588b0dc1576b827e94f51a1f06300743460405160405180910390a25050565b60016020528160005260406000208181548110610b7f57600080fd5b90600052602060002001600091509150505481565b60008080549050905090565b60008060006060600080600080805490508810610bf2576040517f08c379a0000000000000000000000000000000000000000000000000000000008152600401610be9906119bc565b60405180910390fd5b6000808981548110610c0757610c06611941565b5b90600052602060002090600502016040518060e00160405290816000820160009054906101000a900473ffffffffffffffffffffffffffffffffffffffff1673ffffffffffffffffffffffffffffffffffffffff1673ffffffffffffffffffffffffffffffffffffffff1681526020016001820160009054906101000a900473ffffffffffffffffffffffffffffffffffffffff1673ffffffffffffffffffffffffffffffffffffffff1673ffffffffffffffffffffffffffffffffffffffff16815260200160028201548152602001600382018054610ce6906115ba565b80601f0160208091040260200160405190810160405280929190818152602001828054610d12906115ba565b8015610d5f5780601f10610d3457610100808354040283529160200191610d5f565b820191906000526020600020905b815481529060010190602001808311610d4257829003601f168201915b505050505081526020016004820160009054906101000a900460ff161515151581526020016004820160019054906101000a900460ff161515151581526020016004820160029054906101000a900460ff1615151515815250509050806000015181602001518260400151836060015184608001518560a001518660c00151975097509750975097509750975050919395979092949650565b6000808281548110610e0d57610e0c611941565b5b906000526020600020906005020190506000805490508210610e64576040517f08c379a0000000000000000000000000000000000000000000000000000000008152600401610e5b906119bc565b60405180910390fd5b3373ffffffffffffffffffffffffffffffffffffffff168160010160009054906101000a900473ffffffffffffffffffffffffffffffffffffffff1673ffffffffffffffffffffffffffffffffffffffff1614610ef6576040517f08c379a0000000000000000000000000000000000000000000000000000000008152600401610eed90611cd6565b60405180910390fd5b8060040160009054906101000a900460ff16610f47576040517f08c379a0000000000000000000000000000000000000000000000000000000008152600401610f3e90611d42565b60405180910390fd5b8060040160019054906101000a900460ff1615610f99576040517f08c379a0000000000000000000000000000000000000000000000000000000008152600401610f9090611dae565b60405180910390fd5b60018160040160016101000a81548160ff021916908315150217905550817f02244c8529cb95e213ee542e76e7776342b3dabd10203d01472bbf4441be892960405160405180910390a25050565b6060600160008373ffffffffffffffffffffffffffffffffffffffff1673ffffffffffffffffffffffffffffffffffffffff16815260200190815260200160002080548060200260200160405190810160405280929190818152602001828054801561107257602002820191906000526020600020905b81548152602001906001019080831161105e575b50505050509050919050565b6000604051905090565b600080fd5b600080fd5b6000819050919050565b6110a581611092565b81146110b057600080fd5b50565b6000813590506110c28161109c565b92915050565b6000602082840312156110de576110dd611088565b5b60006110ec848285016110b3565b91505092915050565b600073ffffffffffffffffffffffffffffffffffffffff82169050919050565b6000611120826110f5565b9050919050565b61113081611115565b82525050565b61113f81611092565b82525050565b600081519050919050565b600082825260208201905092915050565b60005b8381101561117f578082015181840152602081019050611164565b60008484015250505050565b6000601f19601f8301169050919050565b60006111a782611145565b6111b18185611150565b93506111c1818560208601611161565b6111ca8161118b565b840191505092915050565b60008115159050919050565b6111ea816111d5565b82525050565b600060e082019050611205600083018a611127565b6112126020830189611127565b61121f6040830188611136565b8181036060830152611231818761119c565b905061124060808301866111e1565b61124d60a08301856111e1565b61125a60c08301846111e1565b98975050505050505050565b600080fd5b600080fd5b7f4e487b7100000000000000000000000000000000000000000000000000000000600052604160045260246000fd5b6112a88261118b565b810181811067ffffffffffffffff821117156112c7576112c6611270565b5b80604052505050565b60006112da61107e565b90506112e6828261129f565b919050565b600067ffffffffffffffff82111561130657611305611270565b5b61130f8261118b565b9050602081019050919050565b82818337600083830152505050565b600061133e611339846112eb565b6112d0565b90508281526020810184848401111561135a5761135961126b565b5b61136584828561131c565b509392505050565b600082601f83011261138257611381611266565b5b813561139284826020860161132b565b91505092915050565b600080604083850312156113b2576113b1611088565b5b600083013567ffffffffffffffff8111156113d0576113cf61108d565b5b6113dc8582860161136d565b92505060206113ed858286016110b3565b9150509250929050565b61140081611115565b811461140b57600080fd5b50565b60008135905061141d816113f7565b92915050565b6000806040838503121561143a57611439611088565b5b60006114488582860161140e565b9250506020611459858286016110b3565b9150509250929050565b60006020820190506114786000830184611136565b92915050565b60006020828403121561149457611493611088565b5b60006114a28482850161140e565b91505092915050565b600081519050919050565b600082825260208201905092915050565b6000819050602082019050919050565b6114e081611092565b82525050565b60006114f283836114d7565b60208301905092915050565b6000602082019050919050565b6000611516826114ab565b61152081856114b6565b935061152b836114c7565b8060005b8381101561155c57815161154388826114e6565b975061154e836114fe565b92505060018101905061152f565b5085935050505092915050565b60006020820190508181036000830152611583818461150b565b905092915050565b7f4e487b7100000000000000000000000000000000000000000000000000000000600052602260045260246000fd5b600060028204905060018216806115d257607f821691505b6020821081036115e5576115e461158b565b5b50919050565b7f496e636f727265637420616d6f756e742073656e740000000000000000000000600082015250565b6000611621601583611150565b915061162c826115eb565b602082019050919050565b6000602082019050818103600083015261165081611614565b9050919050565b7f416d6f756e74206d7573742062652067726561746572207468616e2030000000600082015250565b600061168d601d83611150565b915061169882611657565b602082019050919050565b600060208201905081810360008301526116bc81611680565b9050919050565b60008190508160005260206000209050919050565b60006020601f8301049050919050565b600082821b905092915050565b6000600883026117257fffffffffffffffffffffffffffffffffffffffffffffffffffffffffffffffff826116e8565b61172f86836116e8565b95508019841693508086168417925050509392505050565b6000819050919050565b600061176c61176761176284611092565b611747565b611092565b9050919050565b6000819050919050565b61178683611751565b61179a61179282611773565b8484546116f5565b825550505050565b600090565b6117af6117a2565b6117ba81848461177d565b505050565b5b818110156117de576117d36000826117a7565b6001810190506117c0565b5050565b601f821115611823576117f4816116c3565b6117fd846116d8565b8101602085101561180c578190505b611820611818856116d8565b8301826117bf565b50505b505050565b600082821c905092915050565b600061184660001984600802611828565b1980831691505092915050565b600061185f8383611835565b9150826002028217905092915050565b61187882611145565b67ffffffffffffffff81111561189157611890611270565b5b61189b82546115ba565b6118a68282856117e2565b600060209050601f8311600181146118d957600084156118c7578287015190505b6118d18582611853565b865550611939565b601f1984166118e7866116c3565b60005b8281101561190f578489015182556001820191506020850194506020810190506118ea565b8683101561192c5784890151611928601f891682611835565b8355505b6001600288020188555050505b505050505050565b7f4e487b7100000000000000000000000000000000000000000000000000000000600052603260045260246000fd5b7f4a6f6220646f6573206e6f742065786973740000000000000000000000000000600082015250565b60006119a6601283611150565b91506119b182611970565b602082019050919050565b600060208201905081810360008301526119d581611999565b9050919050565b7f416c726561647920616363657074656400000000000000000000000000000000600082015250565b6000611a12601083611150565b9150611a1d826119dc565b602082019050919050565b60006020820190508181036000830152611a4181611a05565b9050919050565b7f436c69656e742063616e6e6f7420616363657074206f776e206a6f6200000000600082015250565b6000611a7e601c83611150565b9150611a8982611a48565b602082019050919050565b60006020820190508181036000830152611aad81611a71565b9050919050565b7f416c72656164792068617320667265656c616e63657200000000000000000000600082015250565b6000611aea601683611150565b9150611af582611ab4565b602082019050919050565b60006020820190508181036000830152611b1981611add565b9050919050565b7f4f6e6c7920636c69656e742063616e2072656c65617365207061796d656e7400600082015250565b6000611b56601f83611150565b9150611b6182611b20565b602082019050919050565b60006020820190508181036000830152611b8581611b49565b9050919050565b7f4a6f62206e6f7420636f6d706c65746564207965740000000000000000000000600082015250565b6000611bc2601583611150565b9150611bcd82611b8c565b602082019050919050565b60006020820190508181036000830152611bf181611bb5565b9050919050565b7f416c726561647920706169640000000000000000000000000000000000000000600082015250565b6000611c2e600c83611150565b9150611c3982611bf8565b602082019050919050565b60006020820190508181036000830152611c5d81611c21565b9050919050565b7f4f6e6c7920667265656c616e6365722063616e206d61726b20636f6d706c657460008201527f6500000000000000000000000000000000000000000000000000000000000000602082015250565b6000611cc0602183611150565b9150611ccb82611c64565b604082019050919050565b60006020820190508181036000830152611cef81611cb3565b9050919050565b7f4a6f62206e6f7420616363657074656420796574000000000000000000000000600082015250565b6000611d2c601483611150565b9150611d3782611cf6565b602082019050919050565b60006020820190508181036000830152611d5b81611d1f565b9050919050565b7f416c7265616479206d61726b656420636f6d706c657465640000000000000000600082015250565b6000611d98601883611150565b9150611da382611d62565b602082019050919050565b60006020820190508181036000830152611dc781611d8b565b905091905056fea2646970667358221220660fcfbbc656eb589170d22b3055c23194c9bf43cb5479280a7b1ec61083b24264736f6c63430008140033",
  "linkReferences": {},
  "deployedLinkReferences": {}
}